{
  "_format": "hh-sol-artifact-1",
  "contractName": "Zero2Hero",
  "sourceName": "contracts/Zero2Hero.sol",
  "abi": [
    {
      "inputs": [
        {
          "internalType": "uint256",
          "name": "_unlockTime",
          "type": "uint256"
        },
        {
          "internalType": "address",
          "name": "router",
          "type": "address"
        },
        {
          "internalType": "address",
          "name": "_priceFeed",
          "type": "address"
        }
      ],
      "stateMutability": "payable",
      "type": "constructor"
    },
    {
      "inputs": [
        {
          "internalType": "address",
          "name": "spender",
          "type": "address"
        },
        {
          "internalType": "uint256",
          "name": "allowance",
          "type": "uint256"
        },
        {
          "internalType": "uint256",
          "name": "needed",
          "type": "uint256"
        }
      ],
      "name": "ERC20InsufficientAllowance",
      "type": "error"
    },
    {
      "inputs": [
        {
          "internalType": "address",
          "name": "sender",
          "type": "address"
        },
        {
          "internalType": "uint256",
          "name": "balance",
          "type": "uint256"
        },
        {
          "internalType": "uint256",
          "name": "needed",
          "type": "uint256"
        }
      ],
      "name": "ERC20InsufficientBalance",
      "type": "error"
    },
    {
      "inputs": [
        {
          "internalType": "address",
          "name": "approver",
          "type": "address"
        }
      ],
      "name": "ERC20InvalidApprover",
      "type": "error"
    },
    {
      "inputs": [
        {
          "internalType": "address",
          "name": "receiver",
          "type": "address"
        }
      ],
      "name": "ERC20InvalidReceiver",
      "type": "error"
    },
    {
      "inputs": [
        {
          "internalType": "address",
          "name": "sender",
          "type": "address"
        }
      ],
      "name": "ERC20InvalidSender",
      "type": "error"
    },
    {
      "inputs": [
        {
          "internalType": "address",
          "name": "spender",
          "type": "address"
        }
      ],
      "name": "ERC20InvalidSpender",
      "type": "error"
    },
    {
      "inputs": [
        {
          "internalType": "address",
          "name": "caller",
          "type": "address"
        },
        {
          "internalType": "address",
          "name": "owner",
          "type": "address"
        },
        {
          "internalType": "address",
          "name": "automationRegistry",
          "type": "address"
        }
      ],
      "name": "NotAllowedCaller",
      "type": "error"
    },
    {
      "inputs": [],
      "name": "OnlyRouterCanFulfill",
      "type": "error"
    },
    {
      "inputs": [
        {
          "internalType": "bytes32",
          "name": "requestId",
          "type": "bytes32"
        }
      ],
      "name": "UnexpectedRequestID",
      "type": "error"
    },
    {
      "anonymous": false,
      "inputs": [
        {
          "indexed": true,
          "internalType": "address",
          "name": "owner",
          "type": "address"
        },
        {
          "indexed": true,
          "internalType": "address",
          "name": "spender",
          "type": "address"
        },
        {
          "indexed": false,
          "internalType": "uint256",
          "name": "value",
          "type": "uint256"
        }
      ],
      "name": "Approval",
      "type": "event"
    },
    {
      "anonymous": false,
      "inputs": [
        {
          "indexed": true,
          "internalType": "address",
          "name": "from",
          "type": "address"
        },
        {
          "indexed": true,
          "internalType": "address",
          "name": "to",
          "type": "address"
        }
      ],
      "name": "OwnershipTransferRequested",
      "type": "event"
    },
    {
      "anonymous": false,
      "inputs": [
        {
          "indexed": true,
          "internalType": "address",
          "name": "from",
          "type": "address"
        },
        {
          "indexed": true,
          "internalType": "address",
          "name": "to",
          "type": "address"
        }
      ],
      "name": "OwnershipTransferred",
      "type": "event"
    },
    {
      "anonymous": false,
      "inputs": [
        {
          "indexed": true,
          "internalType": "bytes32",
          "name": "id",
          "type": "bytes32"
        }
      ],
      "name": "RequestFulfilled",
      "type": "event"
    },
    {
      "anonymous": false,
      "inputs": [
        {
          "indexed": true,
          "internalType": "bytes32",
          "name": "id",
          "type": "bytes32"
        }
      ],
      "name": "RequestSent",
      "type": "event"
    },
    {
      "anonymous": false,
      "inputs": [
        {
          "indexed": true,
          "internalType": "bytes32",
          "name": "requestId",
          "type": "bytes32"
        },
        {
          "indexed": false,
          "internalType": "bytes",
          "name": "response",
          "type": "bytes"
        },
        {
          "indexed": false,
          "internalType": "bytes",
          "name": "err",
          "type": "bytes"
        }
      ],
      "name": "Response",
      "type": "event"
    },
    {
      "anonymous": false,
      "inputs": [
        {
          "indexed": true,
          "internalType": "address",
          "name": "user",
          "type": "address"
        },
        {
          "indexed": false,
          "internalType": "uint256",
          "name": "amount",
          "type": "uint256"
        }
      ],
      "name": "Reward",
      "type": "event"
    },
    {
      "anonymous": false,
      "inputs": [
        {
          "indexed": true,
          "internalType": "address",
          "name": "from",
          "type": "address"
        },
        {
          "indexed": true,
          "internalType": "address",
          "name": "to",
          "type": "address"
        },
        {
          "indexed": false,
          "internalType": "uint256",
          "name": "value",
          "type": "uint256"
        }
      ],
      "name": "Transfer",
      "type": "event"
    },
    {
      "anonymous": false,
      "inputs": [
        {
          "indexed": false,
          "internalType": "uint256",
          "name": "amount",
          "type": "uint256"
        },
        {
          "indexed": false,
          "internalType": "uint256",
          "name": "when",
          "type": "uint256"
        }
      ],
      "name": "Withdrawal",
      "type": "event"
    },
    {
      "inputs": [],
      "name": "REWARD_AMOUNT",
      "outputs": [
        {
          "internalType": "uint256",
          "name": "",
          "type": "uint256"
        }
      ],
      "stateMutability": "view",
      "type": "function"
    },
    {
      "inputs": [],
      "name": "REWARD_INTERVAL",
      "outputs": [
        {
          "internalType": "uint256",
          "name": "",
          "type": "uint256"
        }
      ],
      "stateMutability": "view",
      "type": "function"
    },
    {
      "inputs": [],
      "name": "acceptOwnership",
      "outputs": [],
      "stateMutability": "nonpayable",
      "type": "function"
    },
    {
      "inputs": [
        {
          "internalType": "address",
          "name": "owner",
          "type": "address"
        },
        {
          "internalType": "address",
          "name": "spender",
          "type": "address"
        }
      ],
      "name": "allowance",
      "outputs": [
        {
          "internalType": "uint256",
          "name": "",
          "type": "uint256"
        }
      ],
      "stateMutability": "view",
      "type": "function"
    },
    {
      "inputs": [
        {
          "internalType": "address",
          "name": "spender",
          "type": "address"
        },
        {
          "internalType": "uint256",
          "name": "value",
          "type": "uint256"
        }
      ],
      "name": "approve",
      "outputs": [
        {
          "internalType": "bool",
          "name": "",
          "type": "bool"
        }
      ],
      "stateMutability": "nonpayable",
      "type": "function"
    },
    {
      "inputs": [
        {
          "internalType": "address",
          "name": "account",
          "type": "address"
        }
      ],
      "name": "balanceOf",
      "outputs": [
        {
          "internalType": "uint256",
          "name": "",
          "type": "uint256"
        }
      ],
      "stateMutability": "view",
      "type": "function"
    },
    {
      "inputs": [],
      "name": "claimReward",
      "outputs": [],
      "stateMutability": "nonpayable",
      "type": "function"
    },
    {
      "inputs": [],
      "name": "decimals",
      "outputs": [
        {
          "internalType": "uint8",
          "name": "",
          "type": "uint8"
        }
      ],
      "stateMutability": "view",
      "type": "function"
    },
    {
      "inputs": [],
      "name": "donID",
      "outputs": [
        {
          "internalType": "bytes32",
          "name": "",
          "type": "bytes32"
        }
      ],
      "stateMutability": "view",
      "type": "function"
    },
    {
      "inputs": [],
      "name": "gasLimit",
      "outputs": [
        {
          "internalType": "uint32",
          "name": "",
          "type": "uint32"
        }
      ],
      "stateMutability": "view",
      "type": "function"
    },
    {
      "inputs": [],
      "name": "getLatestETHPrice",
      "outputs": [
        {
          "internalType": "int256",
          "name": "",
          "type": "int256"
        }
      ],
      "stateMutability": "view",
      "type": "function"
    },
    {
      "inputs": [],
      "name": "getOwner",
      "outputs": [
        {
          "internalType": "address",
          "name": "",
          "type": "address"
        }
      ],
      "stateMutability": "view",
      "type": "function"
    },
    {
      "inputs": [],
      "name": "getRequest",
      "outputs": [
        {
          "internalType": "bytes",
          "name": "",
          "type": "bytes"
        }
      ],
      "stateMutability": "view",
      "type": "function"
    },
    {
      "inputs": [],
      "name": "getUnlockTime",
      "outputs": [
        {
          "internalType": "uint256",
          "name": "",
          "type": "uint256"
        }
      ],
      "stateMutability": "view",
      "type": "function"
    },
    {
      "inputs": [],
      "name": "getUpkeepContract",
      "outputs": [
        {
          "internalType": "address",
          "name": "",
          "type": "address"
        }
      ],
      "stateMutability": "view",
      "type": "function"
    },
    {
      "inputs": [
        {
          "internalType": "bytes32",
          "name": "requestId",
          "type": "bytes32"
        },
        {
          "internalType": "bytes",
          "name": "response",
          "type": "bytes"
        },
        {
          "internalType": "bytes",
          "name": "err",
          "type": "bytes"
        }
      ],
      "name": "handleOracleFulfillment",
      "outputs": [],
      "stateMutability": "nonpayable",
      "type": "function"
    },
    {
      "inputs": [
        {
          "internalType": "address",
          "name": "",
          "type": "address"
        }
      ],
      "name": "lastRewardTime",
      "outputs": [
        {
          "internalType": "uint256",
          "name": "",
          "type": "uint256"
        }
      ],
      "stateMutability": "view",
      "type": "function"
    },
    {
      "inputs": [],
      "name": "name",
      "outputs": [
        {
          "internalType": "string",
          "name": "",
          "type": "string"
        }
      ],
      "stateMutability": "view",
      "type": "function"
    },
    {
      "inputs": [],
      "name": "owner",
      "outputs": [
        {
          "internalType": "address",
          "name": "",
          "type": "address"
        }
      ],
      "stateMutability": "view",
      "type": "function"
    },
    {
      "inputs": [],
      "name": "s_lastError",
      "outputs": [
        {
          "internalType": "bytes",
          "name": "",
          "type": "bytes"
        }
      ],
      "stateMutability": "view",
      "type": "function"
    },
    {
      "inputs": [],
      "name": "s_lastRequestId",
      "outputs": [
        {
          "internalType": "bytes32",
          "name": "",
          "type": "bytes32"
        }
      ],
      "stateMutability": "view",
      "type": "function"
    },
    {
      "inputs": [],
      "name": "s_lastResponse",
      "outputs": [
        {
          "internalType": "bytes",
          "name": "",
          "type": "bytes"
        }
      ],
      "stateMutability": "view",
      "type": "function"
    },
    {
      "inputs": [],
      "name": "sendRequestCBOR",
      "outputs": [
        {
          "internalType": "bytes32",
          "name": "requestId",
          "type": "bytes32"
        }
      ],
      "stateMutability": "nonpayable",
      "type": "function"
    },
    {
      "inputs": [
        {
          "internalType": "address",
          "name": "_upkeepContract",
          "type": "address"
        }
      ],
      "name": "setAutomationCronContract",
      "outputs": [],
      "stateMutability": "nonpayable",
      "type": "function"
    },
    {
      "inputs": [],
      "name": "storedUSDValue",
      "outputs": [
        {
          "internalType": "uint256",
          "name": "",
          "type": "uint256"
        }
      ],
      "stateMutability": "view",
      "type": "function"
    },
    {
      "inputs": [],
      "name": "subscriptionId",
      "outputs": [
        {
          "internalType": "uint64",
          "name": "",
          "type": "uint64"
        }
      ],
      "stateMutability": "view",
      "type": "function"
    },
    {
      "inputs": [],
      "name": "symbol",
      "outputs": [
        {
          "internalType": "string",
          "name": "",
          "type": "string"
        }
      ],
      "stateMutability": "view",
      "type": "function"
    },
    {
      "inputs": [],
      "name": "totalSupply",
      "outputs": [
        {
          "internalType": "uint256",
          "name": "",
          "type": "uint256"
        }
      ],
      "stateMutability": "view",
      "type": "function"
    },
    {
      "inputs": [
        {
          "internalType": "address",
          "name": "to",
          "type": "address"
        },
        {
          "internalType": "uint256",
          "name": "value",
          "type": "uint256"
        }
      ],
      "name": "transfer",
      "outputs": [
        {
          "internalType": "bool",
          "name": "",
          "type": "bool"
        }
      ],
      "stateMutability": "nonpayable",
      "type": "function"
    },
    {
      "inputs": [
        {
          "internalType": "address",
          "name": "from",
          "type": "address"
        },
        {
          "internalType": "address",
          "name": "to",
          "type": "address"
        },
        {
          "internalType": "uint256",
          "name": "value",
          "type": "uint256"
        }
      ],
      "name": "transferFrom",
      "outputs": [
        {
          "internalType": "bool",
          "name": "",
          "type": "bool"
        }
      ],
      "stateMutability": "nonpayable",
      "type": "function"
    },
    {
      "inputs": [
        {
          "internalType": "address",
          "name": "to",
          "type": "address"
        }
      ],
      "name": "transferOwnership",
      "outputs": [],
      "stateMutability": "nonpayable",
      "type": "function"
    },
    {
      "inputs": [
        {
          "internalType": "bytes",
          "name": "_request",
          "type": "bytes"
        },
        {
          "internalType": "uint64",
          "name": "_subscriptionId",
          "type": "uint64"
        },
        {
          "internalType": "uint32",
          "name": "_gasLimit",
          "type": "uint32"
        },
        {
          "internalType": "bytes32",
          "name": "_donID",
          "type": "bytes32"
        }
      ],
      "name": "updateRequest",
      "outputs": [],
      "stateMutability": "nonpayable",
      "type": "function"
    },
    {
      "inputs": [],
      "name": "withdraw",
      "outputs": [],
      "stateMutability": "nonpayable",
      "type": "function"
    }
  ],
  "bytecode": "0x60a060405260405162003afc38038062003afc833981810160405281019062000029919062000737565b6040518060400160405280600b81526020017f526577617264546f6b656e0000000000000000000000000000000000000000008152506040518060400160405280600381526020017f525754000000000000000000000000000000000000000000000000000000000081525033806000868073ffffffffffffffffffffffffffffffffffffffff1660808173ffffffffffffffffffffffffffffffffffffffff168152505050600073ffffffffffffffffffffffffffffffffffffffff168273ffffffffffffffffffffffffffffffffffffffff160362000141576040517f08c379a00000000000000000000000000000000000000000000000000000000081526004016200013890620007f4565b60405180910390fd5b816000806101000a81548173ffffffffffffffffffffffffffffffffffffffff021916908373ffffffffffffffffffffffffffffffffffffffff160217905550600073ffffffffffffffffffffffffffffffffffffffff168173ffffffffffffffffffffffffffffffffffffffff1614620001c857620001c781620002a360201b60201c565b5b5050508160059081620001dc919062000a86565b508060069081620001ee919062000a86565b50505082421062000236576040517f08c379a00000000000000000000000000000000000000000000000000000000081526004016200022d9062000be3565b60405180910390fd5b8260078190555080601060006101000a81548173ffffffffffffffffffffffffffffffffffffffff021916908373ffffffffffffffffffffffffffffffffffffffff1602179055506200029a3069d3c21bcecceda1000000620003d260201b60201c565b50505062000d7a565b3373ffffffffffffffffffffffffffffffffffffffff168173ffffffffffffffffffffffffffffffffffffffff160362000314576040517f08c379a00000000000000000000000000000000000000000000000000000000081526004016200030b9062000c55565b60405180910390fd5b80600160006101000a81548173ffffffffffffffffffffffffffffffffffffffff021916908373ffffffffffffffffffffffffffffffffffffffff1602179055508073ffffffffffffffffffffffffffffffffffffffff1660008054906101000a900473ffffffffffffffffffffffffffffffffffffffff1673ffffffffffffffffffffffffffffffffffffffff167fed8889f560326eb138920d842192f0eb3dd22b4f139c87a2c57538e05bae127860405160405180910390a350565b600073ffffffffffffffffffffffffffffffffffffffff168273ffffffffffffffffffffffffffffffffffffffff1603620004475760006040517fec442f050000000000000000000000000000000000000000000000000000000081526004016200043e919062000c88565b60405180910390fd5b6200045b600083836200045f60201b60201c565b5050565b600073ffffffffffffffffffffffffffffffffffffffff168373ffffffffffffffffffffffffffffffffffffffff1603620004b5578060046000828254620004a8919062000cd4565b925050819055506200058d565b6000600260008573ffffffffffffffffffffffffffffffffffffffff1673ffffffffffffffffffffffffffffffffffffffff1681526020019081526020016000205490508181101562000545578381836040517fe450d38c0000000000000000000000000000000000000000000000000000000081526004016200053c9392919062000d20565b60405180910390fd5b818103600260008673ffffffffffffffffffffffffffffffffffffffff1673ffffffffffffffffffffffffffffffffffffffff16815260200190815260200160002081905550505b600073ffffffffffffffffffffffffffffffffffffffff168273ffffffffffffffffffffffffffffffffffffffff1603620005d8578060046000828254039250508190555062000626565b80600260008473ffffffffffffffffffffffffffffffffffffffff1673ffffffffffffffffffffffffffffffffffffffff168152602001908152602001600020600082825401925050819055505b8173ffffffffffffffffffffffffffffffffffffffff168373ffffffffffffffffffffffffffffffffffffffff167fddf252ad1be2c89b69c2b068fc378daa952ba7f163c4a11628f55a4df523b3ef8360405162000685919062000d5d565b60405180910390a3505050565b600080fd5b6000819050919050565b620006ac8162000697565b8114620006b857600080fd5b50565b600081519050620006cc81620006a1565b92915050565b600073ffffffffffffffffffffffffffffffffffffffff82169050919050565b6000620006ff82620006d2565b9050919050565b6200071181620006f2565b81146200071d57600080fd5b50565b600081519050620007318162000706565b92915050565b60008060006060848603121562000753576200075262000692565b5b60006200076386828701620006bb565b9350506020620007768682870162000720565b9250506040620007898682870162000720565b9150509250925092565b600082825260208201905092915050565b7f43616e6e6f7420736574206f776e657220746f207a65726f0000000000000000600082015250565b6000620007dc60188362000793565b9150620007e982620007a4565b602082019050919050565b600060208201905081810360008301526200080f81620007cd565b9050919050565b600081519050919050565b7f4e487b7100000000000000000000000000000000000000000000000000000000600052604160045260246000fd5b7f4e487b7100000000000000000000000000000000000000000000000000000000600052602260045260246000fd5b600060028204905060018216806200089857607f821691505b602082108103620008ae57620008ad62000850565b5b50919050565b60008190508160005260206000209050919050565b60006020601f8301049050919050565b600082821b905092915050565b600060088302620009187fffffffffffffffffffffffffffffffffffffffffffffffffffffffffffffffff82620008d9565b620009248683620008d9565b95508019841693508086168417925050509392505050565b6000819050919050565b600062000967620009616200095b8462000697565b6200093c565b62000697565b9050919050565b6000819050919050565b620009838362000946565b6200099b62000992826200096e565b848454620008e6565b825550505050565b600090565b620009b2620009a3565b620009bf81848462000978565b505050565b5b81811015620009e757620009db600082620009a8565b600181019050620009c5565b5050565b601f82111562000a365762000a0081620008b4565b62000a0b84620008c9565b8101602085101562000a1b578190505b62000a3362000a2a85620008c9565b830182620009c4565b50505b505050565b600082821c905092915050565b600062000a5b6000198460080262000a3b565b1980831691505092915050565b600062000a76838362000a48565b9150826002028217905092915050565b62000a918262000816565b67ffffffffffffffff81111562000aad5762000aac62000821565b5b62000ab982546200087f565b62000ac6828285620009eb565b600060209050601f83116001811462000afe576000841562000ae9578287015190505b62000af5858262000a68565b86555062000b65565b601f19841662000b0e86620008b4565b60005b8281101562000b385784890151825560018201915060208501945060208101905062000b11565b8683101562000b58578489015162000b54601f89168262000a48565b8355505b6001600288020188555050505b505050505050565b7f556e6c6f636b2074696d652073686f756c6420626520696e207468652066757460008201527f7572650000000000000000000000000000000000000000000000000000000000602082015250565b600062000bcb60238362000793565b915062000bd88262000b6d565b604082019050919050565b6000602082019050818103600083015262000bfe8162000bbc565b9050919050565b7f43616e6e6f74207472616e7366657220746f2073656c66000000000000000000600082015250565b600062000c3d60178362000793565b915062000c4a8262000c05565b602082019050919050565b6000602082019050818103600083015262000c708162000c2e565b9050919050565b62000c8281620006f2565b82525050565b600060208201905062000c9f600083018462000c77565b92915050565b7f4e487b7100000000000000000000000000000000000000000000000000000000600052601160045260246000fd5b600062000ce18262000697565b915062000cee8362000697565b925082820190508082111562000d095762000d0862000ca5565b5b92915050565b62000d1a8162000697565b82525050565b600060608201905062000d37600083018662000c77565b62000d46602083018562000d0f565b62000d55604083018462000d0f565b949350505050565b600060208201905062000d74600083018462000d0f565b92915050565b608051612d5f62000d9d600039600081816106d701526114640152612d5f6000f3fe608060405234801561001057600080fd5b50600436106101fb5760003560e01c806370a082311161011a578063a9059cbb116100ad578063c41c7dce1161007c578063c41c7dce14610562578063cf8494421461057e578063dd62ed3e1461059c578063f2fde38b146105cc578063f68016b7146105e8576101fb565b8063a9059cbb146104ec578063b1e217491461051c578063b88a802f1461053a578063c2bb515f14610544576101fb565b8063893d20e8116100e9578063893d20e8146104765780638da5cb5b1461049457806395d89b41146104b2578063a271f3fe146104d0576101fb565b806370a0823114610400578063777e0d861461043057806379ba50971461044e57806380bbc08f14610458576101fb565b80633944ea3a1161019257806353da3d501161016157806353da3d50146103885780635dbdda69146103a6578063602bc62b146103c45780636e74336b146103e2576101fb565b80633944ea3a146103125780633b5d441e146103305780633ccfd60b146103605780634b0795a81461036a576101fb565b806314b31678116101ce57806314b316781461028857806318160ddd146102a657806323b872dd146102c4578063313ce567146102f4576101fb565b806306fdde0314610200578063095ea7b31461021e57806309c1ba2e1461024e5780630ca761751461026c575b600080fd5b610208610606565b6040516102159190611d15565b60405180910390f35b61023860048036038101906102339190611ddf565b610698565b6040516102459190611e3a565b60405180910390f35b6102566106bb565b6040516102639190611e78565b60405180910390f35b61028660048036038101906102819190611ffe565b6106d5565b005b610290610797565b60405161029d9190612098565b60405180910390f35b6102ae610967565b6040516102bb91906120c2565b60405180910390f35b6102de60048036038101906102d991906120dd565b610971565b6040516102eb9190611e3a565b60405180910390f35b6102fc6109a0565b604051610309919061214c565b60405180910390f35b61031a6109a9565b60405161032791906121bc565b60405180910390f35b61034a600480360381019061034591906121de565b610a37565b60405161035791906120c2565b60405180910390f35b610368610a4f565b005b610372610b92565b60405161037f91906121bc565b60405180910390f35b610390610c20565b60405161039d919061221a565b60405180910390f35b6103ae610c4a565b6040516103bb91906120c2565b60405180910390f35b6103cc610c51565b6040516103d991906120c2565b60405180910390f35b6103ea610c5b565b6040516103f79190612098565b60405180910390f35b61041a600480360381019061041591906121de565b610c61565b60405161042791906120c2565b60405180910390f35b610438610caa565b604051610445919061224e565b60405180910390f35b610456610d4b565b005b610460610ee0565b60405161046d91906120c2565b60405180910390f35b61047e610ee6565b60405161048b919061221a565b60405180910390f35b61049c610ef5565b6040516104a9919061221a565b60405180910390f35b6104ba610f1e565b6040516104c79190611d15565b60405180910390f35b6104ea60048036038101906104e591906121de565b610fb0565b005b61050660048036038101906105019190611ddf565b610ffc565b6040516105139190611e3a565b60405180910390f35b61052461101f565b6040516105319190612098565b60405180910390f35b610542611025565b005b61054c6111ba565b60405161055991906121bc565b60405180910390f35b61057c600480360381019061057791906122d1565b61124c565b005b6105866112bb565b60405161059391906120c2565b60405180910390f35b6105b660048036038101906105b19190612354565b6112c8565b6040516105c391906120c2565b60405180910390f35b6105e660048036038101906105e191906121de565b61134f565b005b6105f0611363565b6040516105fd91906123a3565b60405180910390f35b606060058054610615906123ed565b80601f0160208091040260200160405190810160405280929190818152602001828054610641906123ed565b801561068e5780601f106106635761010080835404028352916020019161068e565b820191906000526020600020905b81548152906001019060200180831161067157829003601f168201915b5050505050905090565b6000806106a3611379565b90506106b0818585611381565b600191505092915050565b600a60009054906101000a900467ffffffffffffffff1681565b7f000000000000000000000000000000000000000000000000000000000000000073ffffffffffffffffffffffffffffffffffffffff163373ffffffffffffffffffffffffffffffffffffffff161461075a576040517fc6829f8300000000000000000000000000000000000000000000000000000000815260040160405180910390fd5b610765838383611393565b827f85e1543bf2f84fe80c6badbce3648c8539ad1df4d2b3d822938ca0538be727e660405160405180910390a2505050565b60006107a1610ef5565b73ffffffffffffffffffffffffffffffffffffffff163373ffffffffffffffffffffffffffffffffffffffff161415801561082a5750600860009054906101000a900473ffffffffffffffffffffffffffffffffffffffff1673ffffffffffffffffffffffffffffffffffffffff163373ffffffffffffffffffffffffffffffffffffffff1614155b156108995733610838610ef5565b600860009054906101000a900473ffffffffffffffffffffffffffffffffffffffff166040517f426fbc710000000000000000000000000000000000000000000000000000000081526004016108909392919061241e565b60405180910390fd5b610959600980546108a9906123ed565b80601f01602080910402602001604051908101604052809291908181526020018280546108d5906123ed565b80156109225780601f106108f757610100808354040283529160200191610922565b820191906000526020600020905b81548152906001019060200180831161090557829003601f168201915b5050505050600a60009054906101000a900467ffffffffffffffff16600a60089054906101000a900463ffffffff16600b5461145f565b600c81905550600c54905090565b6000600454905090565b60008061097c611379565b9050610989858285611542565b6109948585856115d6565b60019150509392505050565b60006012905090565b600d80546109b6906123ed565b80601f01602080910402602001604051908101604052809291908181526020018280546109e2906123ed565b8015610a2f5780601f10610a0457610100808354040283529160200191610a2f565b820191906000526020600020905b815481529060010190602001808311610a1257829003601f168201915b505050505081565b60116020528060005260406000206000915090505481565b600754421015610a94576040517f08c379a0000000000000000000000000000000000000000000000000000000008152600401610a8b906124a1565b60405180910390fd5b610a9c610ef5565b73ffffffffffffffffffffffffffffffffffffffff163373ffffffffffffffffffffffffffffffffffffffff1614610b09576040517f08c379a0000000000000000000000000000000000000000000000000000000008152600401610b009061250d565b60405180910390fd5b7fbf2ed60bd5b5965d685680c01195c9514e4382e28e3a5a2d2d5244bf59411b934742604051610b3a92919061252d565b60405180910390a1610b4a610ef5565b73ffffffffffffffffffffffffffffffffffffffff166108fc479081150290604051600060405180830381858888f19350505050158015610b8f573d6000803e3d6000fd5b50565b600e8054610b9f906123ed565b80601f0160208091040260200160405190810160405280929190818152602001828054610bcb906123ed565b8015610c185780601f10610bed57610100808354040283529160200191610c18565b820191906000526020600020905b815481529060010190602001808311610bfb57829003601f168201915b505050505081565b6000600860009054906101000a900473ffffffffffffffffffffffffffffffffffffffff16905090565b6201518081565b6000600754905090565b600b5481565b6000600260008373ffffffffffffffffffffffffffffffffffffffff1673ffffffffffffffffffffffffffffffffffffffff168152602001908152602001600020549050919050565b600080601060009054906101000a900473ffffffffffffffffffffffffffffffffffffffff1673ffffffffffffffffffffffffffffffffffffffff1663feaf968c6040518163ffffffff1660e01b815260040160a060405180830381865afa158015610d1a573d6000803e3d6000fd5b505050506040513d601f19601f82011682018060405250810190610d3e91906125d9565b5050509150508091505090565b600160009054906101000a900473ffffffffffffffffffffffffffffffffffffffff1673ffffffffffffffffffffffffffffffffffffffff163373ffffffffffffffffffffffffffffffffffffffff1614610ddb576040517f08c379a0000000000000000000000000000000000000000000000000000000008152600401610dd2906126a0565b60405180910390fd5b60008060009054906101000a900473ffffffffffffffffffffffffffffffffffffffff169050336000806101000a81548173ffffffffffffffffffffffffffffffffffffffff021916908373ffffffffffffffffffffffffffffffffffffffff1602179055506000600160006101000a81548173ffffffffffffffffffffffffffffffffffffffff021916908373ffffffffffffffffffffffffffffffffffffffff1602179055503373ffffffffffffffffffffffffffffffffffffffff168173ffffffffffffffffffffffffffffffffffffffff167f8be0079c531659141344cd1fd0a4f28419497f9722a3daafe3b4186f6b6457e060405160405180910390a350565b600f5481565b6000610ef0610ef5565b905090565b60008060009054906101000a900473ffffffffffffffffffffffffffffffffffffffff16905090565b606060068054610f2d906123ed565b80601f0160208091040260200160405190810160405280929190818152602001828054610f59906123ed565b8015610fa65780601f10610f7b57610100808354040283529160200191610fa6565b820191906000526020600020905b815481529060010190602001808311610f8957829003601f168201915b5050505050905090565b610fb86116ca565b80600860006101000a81548173ffffffffffffffffffffffffffffffffffffffff021916908373ffffffffffffffffffffffffffffffffffffffff16021790555050565b600080611007611379565b90506110148185856115d6565b600191505092915050565b600c5481565b62015180601160003373ffffffffffffffffffffffffffffffffffffffff1673ffffffffffffffffffffffffffffffffffffffff1681526020019081526020016000205461107391906126ef565b4210156110b5576040517f08c379a00000000000000000000000000000000000000000000000000000000081526004016110ac9061276f565b60405180910390fd5b68056bc75e2d631000006110c830610c61565b1015611109576040517f08c379a0000000000000000000000000000000000000000000000000000000008152600401611100906127db565b60405180910390fd5b42601160003373ffffffffffffffffffffffffffffffffffffffff1673ffffffffffffffffffffffffffffffffffffffff16815260200190815260200160002081905550611161303368056bc75e2d631000006115d6565b3373ffffffffffffffffffffffffffffffffffffffff167f619caafabdd75649b302ba8419e48cccf64f37f1983ac4727cfb38b57703ffc968056bc75e2d631000006040516111b091906120c2565b60405180910390a2565b6060600980546111c9906123ed565b80601f01602080910402602001604051908101604052809291908181526020018280546111f5906123ed565b80156112425780601f1061121757610100808354040283529160200191611242565b820191906000526020600020905b81548152906001019060200180831161122557829003601f168201915b5050505050905090565b6112546116ca565b836009908161126391906129a7565b5082600a60006101000a81548167ffffffffffffffff021916908367ffffffffffffffff16021790555081600a60086101000a81548163ffffffff021916908363ffffffff16021790555080600b8190555050505050565b68056bc75e2d6310000081565b6000600360008473ffffffffffffffffffffffffffffffffffffffff1673ffffffffffffffffffffffffffffffffffffffff16815260200190815260200160002060008373ffffffffffffffffffffffffffffffffffffffff1673ffffffffffffffffffffffffffffffffffffffff16815260200190815260200160002054905092915050565b6113576116ca565b6113608161175a565b50565b600a60089054906101000a900463ffffffff1681565b600033905090565b61138e8383836001611886565b505050565b82600c54146113d957826040517fd068bf5b0000000000000000000000000000000000000000000000000000000081526004016113d09190612098565b60405180910390fd5b81600d90816113e891906129a7565b5080600e90816113f891906129a7565b5060008251111561141e57818060200190518101906114179190612a79565b600f819055505b827f7873807bf6ddc50401cd3d29bbe0decee23fd4d68d273f4b5eb83cded4d2f172600d600e604051611452929190612b2a565b60405180910390a2505050565b6000807f000000000000000000000000000000000000000000000000000000000000000073ffffffffffffffffffffffffffffffffffffffff1663461d27628688600188886040518663ffffffff1660e01b81526004016114c4959493929190612b7e565b6020604051808303816000875af11580156114e3573d6000803e3d6000fd5b505050506040513d601f19601f820116820180604052508101906115079190612bed565b9050807f1131472297a800fee664d1d89cfa8f7676ff07189ecc53f80bbb5f4969099db860405160405180910390a280915050949350505050565b600061154e84846112c8565b90507fffffffffffffffffffffffffffffffffffffffffffffffffffffffffffffffff81146115d057818110156115c0578281836040517ffb8f41b20000000000000000000000000000000000000000000000000000000081526004016115b793929190612c1a565b60405180910390fd5b6115cf84848484036000611886565b5b50505050565b600073ffffffffffffffffffffffffffffffffffffffff168373ffffffffffffffffffffffffffffffffffffffff16036116485760006040517f96c6fd1e00000000000000000000000000000000000000000000000000000000815260040161163f919061221a565b60405180910390fd5b600073ffffffffffffffffffffffffffffffffffffffff168273ffffffffffffffffffffffffffffffffffffffff16036116ba5760006040517fec442f050000000000000000000000000000000000000000000000000000000081526004016116b1919061221a565b60405180910390fd5b6116c5838383611a5d565b505050565b60008054906101000a900473ffffffffffffffffffffffffffffffffffffffff1673ffffffffffffffffffffffffffffffffffffffff163373ffffffffffffffffffffffffffffffffffffffff1614611758576040517f08c379a000000000000000000000000000000000000000000000000000000000815260040161174f90612c9d565b60405180910390fd5b565b3373ffffffffffffffffffffffffffffffffffffffff168173ffffffffffffffffffffffffffffffffffffffff16036117c8576040517f08c379a00000000000000000000000000000000000000000000000000000000081526004016117bf90612d09565b60405180910390fd5b80600160006101000a81548173ffffffffffffffffffffffffffffffffffffffff021916908373ffffffffffffffffffffffffffffffffffffffff1602179055508073ffffffffffffffffffffffffffffffffffffffff1660008054906101000a900473ffffffffffffffffffffffffffffffffffffffff1673ffffffffffffffffffffffffffffffffffffffff167fed8889f560326eb138920d842192f0eb3dd22b4f139c87a2c57538e05bae127860405160405180910390a350565b600073ffffffffffffffffffffffffffffffffffffffff168473ffffffffffffffffffffffffffffffffffffffff16036118f85760006040517fe602df050000000000000000000000000000000000000000000000000000000081526004016118ef919061221a565b60405180910390fd5b600073ffffffffffffffffffffffffffffffffffffffff168373ffffffffffffffffffffffffffffffffffffffff160361196a5760006040517f94280d62000000000000000000000000000000000000000000000000000000008152600401611961919061221a565b60405180910390fd5b81600360008673ffffffffffffffffffffffffffffffffffffffff1673ffffffffffffffffffffffffffffffffffffffff16815260200190815260200160002060008573ffffffffffffffffffffffffffffffffffffffff1673ffffffffffffffffffffffffffffffffffffffff168152602001908152602001600020819055508015611a57578273ffffffffffffffffffffffffffffffffffffffff168473ffffffffffffffffffffffffffffffffffffffff167f8c5be1e5ebec7d5bd14f71427d1e84f3dd0314c0f7b2291e5b200ac8c7c3b92584604051611a4e91906120c2565b60405180910390a35b50505050565b600073ffffffffffffffffffffffffffffffffffffffff168373ffffffffffffffffffffffffffffffffffffffff1603611aaf578060046000828254611aa391906126ef565b92505081905550611b84565b6000600260008573ffffffffffffffffffffffffffffffffffffffff1673ffffffffffffffffffffffffffffffffffffffff16815260200190815260200160002054905081811015611b3c578381836040517fe450d38c000000000000000000000000000000000000000000000000000000008152600401611b3393929190612c1a565b60405180910390fd5b818103600260008673ffffffffffffffffffffffffffffffffffffffff1673ffffffffffffffffffffffffffffffffffffffff16815260200190815260200160002081905550505b600073ffffffffffffffffffffffffffffffffffffffff168273ffffffffffffffffffffffffffffffffffffffff1603611bcd5780600460008282540392505081905550611c1b565b80600260008473ffffffffffffffffffffffffffffffffffffffff1673ffffffffffffffffffffffffffffffffffffffff168152602001908152602001600020600082825401925050819055505b8173ffffffffffffffffffffffffffffffffffffffff168373ffffffffffffffffffffffffffffffffffffffff167fddf252ad1be2c89b69c2b068fc378daa952ba7f163c4a11628f55a4df523b3ef83604051611c7891906120c2565b60405180910390a3505050565b600081519050919050565b600082825260208201905092915050565b60005b83811015611cbf578082015181840152602081019050611ca4565b60008484015250505050565b6000601f19601f8301169050919050565b6000611ce782611c85565b611cf18185611c90565b9350611d01818560208601611ca1565b611d0a81611ccb565b840191505092915050565b60006020820190508181036000830152611d2f8184611cdc565b905092915050565b6000604051905090565b600080fd5b600080fd5b600073ffffffffffffffffffffffffffffffffffffffff82169050919050565b6000611d7682611d4b565b9050919050565b611d8681611d6b565b8114611d9157600080fd5b50565b600081359050611da381611d7d565b92915050565b6000819050919050565b611dbc81611da9565b8114611dc757600080fd5b50565b600081359050611dd981611db3565b92915050565b60008060408385031215611df657611df5611d41565b5b6000611e0485828601611d94565b9250506020611e1585828601611dca565b9150509250929050565b60008115159050919050565b611e3481611e1f565b82525050565b6000602082019050611e4f6000830184611e2b565b92915050565b600067ffffffffffffffff82169050919050565b611e7281611e55565b82525050565b6000602082019050611e8d6000830184611e69565b92915050565b6000819050919050565b611ea681611e93565b8114611eb157600080fd5b50565b600081359050611ec381611e9d565b92915050565b600080fd5b600080fd5b7f4e487b7100000000000000000000000000000000000000000000000000000000600052604160045260246000fd5b611f0b82611ccb565b810181811067ffffffffffffffff82111715611f2a57611f29611ed3565b5b80604052505050565b6000611f3d611d37565b9050611f498282611f02565b919050565b600067ffffffffffffffff821115611f6957611f68611ed3565b5b611f7282611ccb565b9050602081019050919050565b82818337600083830152505050565b6000611fa1611f9c84611f4e565b611f33565b905082815260208101848484011115611fbd57611fbc611ece565b5b611fc8848285611f7f565b509392505050565b600082601f830112611fe557611fe4611ec9565b5b8135611ff5848260208601611f8e565b91505092915050565b60008060006060848603121561201757612016611d41565b5b600061202586828701611eb4565b935050602084013567ffffffffffffffff81111561204657612045611d46565b5b61205286828701611fd0565b925050604084013567ffffffffffffffff81111561207357612072611d46565b5b61207f86828701611fd0565b9150509250925092565b61209281611e93565b82525050565b60006020820190506120ad6000830184612089565b92915050565b6120bc81611da9565b82525050565b60006020820190506120d760008301846120b3565b92915050565b6000806000606084860312156120f6576120f5611d41565b5b600061210486828701611d94565b935050602061211586828701611d94565b925050604061212686828701611dca565b9150509250925092565b600060ff82169050919050565b61214681612130565b82525050565b6000602082019050612161600083018461213d565b92915050565b600081519050919050565b600082825260208201905092915050565b600061218e82612167565b6121988185612172565b93506121a8818560208601611ca1565b6121b181611ccb565b840191505092915050565b600060208201905081810360008301526121d68184612183565b905092915050565b6000602082840312156121f4576121f3611d41565b5b600061220284828501611d94565b91505092915050565b61221481611d6b565b82525050565b600060208201905061222f600083018461220b565b92915050565b6000819050919050565b61224881612235565b82525050565b6000602082019050612263600083018461223f565b92915050565b61227281611e55565b811461227d57600080fd5b50565b60008135905061228f81612269565b92915050565b600063ffffffff82169050919050565b6122ae81612295565b81146122b957600080fd5b50565b6000813590506122cb816122a5565b92915050565b600080600080608085870312156122eb576122ea611d41565b5b600085013567ffffffffffffffff81111561230957612308611d46565b5b61231587828801611fd0565b945050602061232687828801612280565b9350506040612337878288016122bc565b925050606061234887828801611eb4565b91505092959194509250565b6000806040838503121561236b5761236a611d41565b5b600061237985828601611d94565b925050602061238a85828601611d94565b9150509250929050565b61239d81612295565b82525050565b60006020820190506123b86000830184612394565b92915050565b7f4e487b7100000000000000000000000000000000000000000000000000000000600052602260045260246000fd5b6000600282049050600182168061240557607f821691505b602082108103612418576124176123be565b5b50919050565b6000606082019050612433600083018661220b565b612440602083018561220b565b61244d604083018461220b565b949350505050565b7f596f752063616e27742077697468647261772079657400000000000000000000600082015250565b600061248b601683611c90565b915061249682612455565b602082019050919050565b600060208201905081810360008301526124ba8161247e565b9050919050565b7f596f75206172656e277420746865206f776e6572000000000000000000000000600082015250565b60006124f7601483611c90565b9150612502826124c1565b602082019050919050565b60006020820190508181036000830152612526816124ea565b9050919050565b600060408201905061254260008301856120b3565b61254f60208301846120b3565b9392505050565b600069ffffffffffffffffffff82169050919050565b61257581612556565b811461258057600080fd5b50565b6000815190506125928161256c565b92915050565b6125a181612235565b81146125ac57600080fd5b50565b6000815190506125be81612598565b92915050565b6000815190506125d381611db3565b92915050565b600080600080600060a086880312156125f5576125f4611d41565b5b600061260388828901612583565b9550506020612614888289016125af565b9450506040612625888289016125c4565b9350506060612636888289016125c4565b925050608061264788828901612583565b9150509295509295909350565b7f4d7573742062652070726f706f736564206f776e657200000000000000000000600082015250565b600061268a601683611c90565b915061269582612654565b602082019050919050565b600060208201905081810360008301526126b98161267d565b9050919050565b7f4e487b7100000000000000000000000000000000000000000000000000000000600052601160045260246000fd5b60006126fa82611da9565b915061270583611da9565b925082820190508082111561271d5761271c6126c0565b5b92915050565b7f526577617264206e6f742079657420617661696c61626c650000000000000000600082015250565b6000612759601883611c90565b915061276482612723565b602082019050919050565b600060208201905081810360008301526127888161274c565b9050919050565b7f4e6f7420656e6f75676820746f6b656e7320696e20636f6e7472616374000000600082015250565b60006127c5601d83611c90565b91506127d08261278f565b602082019050919050565b600060208201905081810360008301526127f4816127b8565b9050919050565b60008190508160005260206000209050919050565b60006020601f8301049050919050565b600082821b905092915050565b60006008830261285d7fffffffffffffffffffffffffffffffffffffffffffffffffffffffffffffffff82612820565b6128678683612820565b95508019841693508086168417925050509392505050565b6000819050919050565b60006128a461289f61289a84611da9565b61287f565b611da9565b9050919050565b6000819050919050565b6128be83612889565b6128d26128ca826128ab565b84845461282d565b825550505050565b600090565b6128e76128da565b6128f28184846128b5565b505050565b5b818110156129165761290b6000826128df565b6001810190506128f8565b5050565b601f82111561295b5761292c816127fb565b61293584612810565b81016020851015612944578190505b61295861295085612810565b8301826128f7565b50505b505050565b600082821c905092915050565b600061297e60001984600802612960565b1980831691505092915050565b6000612997838361296d565b9150826002028217905092915050565b6129b082612167565b67ffffffffffffffff8111156129c9576129c8611ed3565b5b6129d382546123ed565b6129de82828561291a565b600060209050601f831160018114612a1157600084156129ff578287015190505b612a09858261298b565b865550612a71565b601f198416612a1f866127fb565b60005b82811015612a4757848901518255600182019150602085019450602081019050612a22565b86831015612a645784890151612a60601f89168261296d565b8355505b6001600288020188555050505b505050505050565b600060208284031215612a8f57612a8e611d41565b5b6000612a9d848285016125c4565b91505092915050565b60008154612ab3816123ed565b612abd8186612172565b94506001821660008114612ad85760018114612aee57612b21565b60ff198316865281151560200286019350612b21565b612af7856127fb565b60005b83811015612b1957815481890152600182019150602081019050612afa565b808801955050505b50505092915050565b60006040820190508181036000830152612b448185612aa6565b90508181036020830152612b588184612aa6565b90509392505050565b600061ffff82169050919050565b612b7881612b61565b82525050565b600060a082019050612b936000830188611e69565b8181036020830152612ba58187612183565b9050612bb46040830186612b6f565b612bc16060830185612394565b612bce6080830184612089565b9695505050505050565b600081519050612be781611e9d565b92915050565b600060208284031215612c0357612c02611d41565b5b6000612c1184828501612bd8565b91505092915050565b6000606082019050612c2f600083018661220b565b612c3c60208301856120b3565b612c4960408301846120b3565b949350505050565b7f4f6e6c792063616c6c61626c65206279206f776e657200000000000000000000600082015250565b6000612c87601683611c90565b9150612c9282612c51565b602082019050919050565b60006020820190508181036000830152612cb681612c7a565b9050919050565b7f43616e6e6f74207472616e7366657220746f2073656c66000000000000000000600082015250565b6000612cf3601783611c90565b9150612cfe82612cbd565b602082019050919050565b60006020820190508181036000830152612d2281612ce6565b905091905056fea2646970667358221220df4fa62eb621b44bb630da3b683060c460d919b39c7bfe9ff019252fa3dd0a3264736f6c63430008180033",
  "linkReferences": {},
  "deployedLinkReferences": {}
}